{
  "contractName": "Voting",
  "abi": [
    {
      "inputs": [
        {
          "internalType": "uint256",
          "name": "_totalVoters",
          "type": "uint256"
        }
      ],
      "stateMutability": "nonpayable",
      "type": "constructor"
    },
    {
      "anonymous": false,
      "inputs": [
        {
          "indexed": false,
          "internalType": "enum Voting.Options",
          "name": "voting_result",
          "type": "uint8"
        },
        {
          "indexed": false,
          "internalType": "string",
          "name": "message",
          "type": "string"
        },
        {
          "indexed": false,
          "internalType": "uint256",
          "name": "total_votes",
          "type": "uint256"
        },
        {
          "indexed": false,
          "internalType": "uint256",
          "name": "voters_count",
          "type": "uint256"
        }
      ],
      "name": "Result",
      "type": "event"
    },
    {
      "anonymous": false,
      "inputs": [
        {
          "indexed": false,
          "internalType": "uint256",
          "name": "time_started",
          "type": "uint256"
        },
        {
          "indexed": false,
          "internalType": "uint256",
          "name": "time_expires",
          "type": "uint256"
        }
      ],
      "name": "start_vote",
      "type": "event"
    },
    {
      "inputs": [],
      "name": "admin",
      "outputs": [
        {
          "internalType": "address",
          "name": "",
          "type": "address"
        }
      ],
      "stateMutability": "view",
      "type": "function",
      "constant": true
    },
    {
      "inputs": [],
      "name": "contract_address",
      "outputs": [
        {
          "internalType": "address",
          "name": "",
          "type": "address"
        }
      ],
      "stateMutability": "view",
      "type": "function",
      "constant": true
    },
    {
      "inputs": [],
      "name": "contract_name",
      "outputs": [
        {
          "internalType": "string",
          "name": "",
          "type": "string"
        }
      ],
      "stateMutability": "view",
      "type": "function",
      "constant": true
    },
    {
      "inputs": [],
      "name": "state",
      "outputs": [
        {
          "internalType": "enum Voting.State",
          "name": "",
          "type": "uint8"
        }
      ],
      "stateMutability": "view",
      "type": "function",
      "constant": true
    },
    {
      "inputs": [],
      "name": "time_voting_expires",
      "outputs": [
        {
          "internalType": "uint256",
          "name": "",
          "type": "uint256"
        }
      ],
      "stateMutability": "view",
      "type": "function",
      "constant": true
    },
    {
      "inputs": [],
      "name": "total_voters",
      "outputs": [
        {
          "internalType": "uint256",
          "name": "",
          "type": "uint256"
        }
      ],
      "stateMutability": "view",
      "type": "function",
      "constant": true
    },
    {
      "inputs": [],
      "name": "total_votes",
      "outputs": [
        {
          "internalType": "uint256",
          "name": "",
          "type": "uint256"
        }
      ],
      "stateMutability": "view",
      "type": "function",
      "constant": true
    },
    {
      "inputs": [
        {
          "internalType": "address",
          "name": "",
          "type": "address"
        }
      ],
      "name": "voter_register",
      "outputs": [
        {
          "internalType": "address",
          "name": "voter_address",
          "type": "address"
        },
        {
          "internalType": "enum Voting.Options",
          "name": "voter_choice",
          "type": "uint8"
        },
        {
          "internalType": "bool",
          "name": "has_voted",
          "type": "bool"
        }
      ],
      "stateMutability": "view",
      "type": "function",
      "constant": true
    },
    {
      "inputs": [
        {
          "internalType": "uint256",
          "name": "",
          "type": "uint256"
        }
      ],
      "name": "voters",
      "outputs": [
        {
          "internalType": "address",
          "name": "",
          "type": "address"
        }
      ],
      "stateMutability": "view",
      "type": "function",
      "constant": true
    },
    {
      "inputs": [],
      "name": "voters_count",
      "outputs": [
        {
          "internalType": "uint256",
          "name": "",
          "type": "uint256"
        }
      ],
      "stateMutability": "view",
      "type": "function",
      "constant": true
    },
    {
      "inputs": [
        {
          "internalType": "enum Voting.Options",
          "name": "",
          "type": "uint8"
        }
      ],
      "name": "votes_per_candidate",
      "outputs": [
        {
          "internalType": "uint256",
          "name": "",
          "type": "uint256"
        }
      ],
      "stateMutability": "view",
      "type": "function",
      "constant": true
    },
    {
      "inputs": [],
      "name": "winner",
      "outputs": [
        {
          "internalType": "enum Voting.Options",
          "name": "",
          "type": "uint8"
        }
      ],
      "stateMutability": "view",
      "type": "function",
      "constant": true
    },
    {
      "inputs": [
        {
          "internalType": "address",
          "name": "_voterAddress",
          "type": "address"
        }
      ],
      "name": "addVoter",
      "outputs": [],
      "stateMutability": "nonpayable",
      "type": "function"
    },
    {
      "inputs": [],
      "name": "startVote",
      "outputs": [
        {
          "internalType": "bool",
          "name": "",
          "type": "bool"
        }
      ],
      "stateMutability": "nonpayable",
      "type": "function"
    },
    {
      "inputs": [
        {
          "internalType": "enum Voting.Options",
          "name": "_choice",
          "type": "uint8"
        }
      ],
      "name": "vote",
      "outputs": [
        {
          "internalType": "bool",
          "name": "",
          "type": "bool"
        }
      ],
      "stateMutability": "nonpayable",
      "type": "function"
    },
    {
      "inputs": [],
      "name": "endVoting",
      "outputs": [
        {
          "internalType": "bool",
          "name": "",
          "type": "bool"
        }
      ],
      "stateMutability": "nonpayable",
      "type": "function"
    },
    {
      "inputs": [],
      "name": "getVoters",
      "outputs": [
        {
          "internalType": "address[]",
          "name": "",
          "type": "address[]"
        }
      ],
      "stateMutability": "view",
      "type": "function",
      "constant": true
    },
    {
      "inputs": [],
      "name": "getTime",
      "outputs": [
        {
          "internalType": "uint256",
          "name": "",
          "type": "uint256"
        }
      ],
      "stateMutability": "view",
      "type": "function",
      "constant": true
    }
  ],
  "bytecode": "0x60806040526000600155600060025534801561001a57600080fd5b506040516113843803806113848339818101604052602081101561003d57600080fd5b810190808051906020019092919050505033600460006101000a81548173ffffffffffffffffffffffffffffffffffffffff021916908373ffffffffffffffffffffffffffffffffffffffff1602179055506000600760006101000a81548160ff021916908360028111156100ae57fe5b021790555080600081905550506112ba806100ca6000396000f3fe608060405234801561001057600080fd5b50600436106101165760003560e01c8063c19d93fb116100a2578063da58c7d911610071578063da58c7d914610427578063dfbf53ae1461047f578063e8677f19146104a8578063f4ab9adf146104c6578063f851a4401461050a57610116565b8063c19d93fb146102fc578063c3403ddf14610325578063cdd7225314610345578063d9479692146103a457610116565b806362637f95116100e957806362637f951461019557806364754be3146101da5780636ede603d14610263578063966b351414610281578063b3f98adc146102b557610116565b806303c5cbf11461011b57806340dec728146101395780634c0a6af014610157578063557ed1ba14610177575b600080fd5b61012361053e565b6040518082815260200191505060405180910390f35b610141610544565b6040518082815260200191505060405180910390f35b61015f61054a565b60405180821515815260200191505060405180910390f35b61017f6106b0565b6040518082815260200191505060405180910390f35b6101c4600480360360208110156101ab57600080fd5b81019080803560ff1690602001909291905050506106b8565b6040518082815260200191505060405180910390f35b61021c600480360360208110156101f057600080fd5b81019080803573ffffffffffffffffffffffffffffffffffffffff1690602001909291905050506106d0565b604051808473ffffffffffffffffffffffffffffffffffffffff16815260200183600281111561024857fe5b81526020018215158152602001935050505060405180910390f35b61026b610734565b6040518082815260200191505060405180910390f35b61028961073a565b604051808273ffffffffffffffffffffffffffffffffffffffff16815260200191505060405180910390f35b6102e4600480360360208110156102cb57600080fd5b81019080803560ff169060200190929190505050610760565b60405180821515815260200191505060405180910390f35b610304610a71565b6040518082600281111561031457fe5b815260200191505060405180910390f35b61032d610a84565b60405180821515815260200191505060405180910390f35b61034d610de1565b6040518080602001828103825283818151815260200191508051906020019060200280838360005b83811015610390578082015181840152602081019050610375565b505050509050019250505060405180910390f35b6103ac610e6f565b6040518080602001828103825283818151815260200191508051906020019080838360005b838110156103ec5780820151818401526020810190506103d1565b50505050905090810190601f1680156104195780820380516001836020036101000a031916815260200191505b509250505060405180910390f35b6104536004803603602081101561043d57600080fd5b8101908080359060200190929190505050610f0d565b604051808273ffffffffffffffffffffffffffffffffffffffff16815260200191505060405180910390f35b610487610f49565b6040518082600281111561049757fe5b815260200191505060405180910390f35b6104b0610f5c565b6040518082815260200191505060405180910390f35b610508600480360360208110156104dc57600080fd5b81019080803573ffffffffffffffffffffffffffffffffffffffff169060200190929190505050610f62565b005b61051261117c565b604051808273ffffffffffffffffffffffffffffffffffffffff16815260200191505060405180910390f35b60035481565b60015481565b60008080600281111561055957fe5b600760009054906101000a900460ff16600281111561057457fe5b1461057e57600080fd5b600460009054906101000a900473ffffffffffffffffffffffffffffffffffffffff1673ffffffffffffffffffffffffffffffffffffffff163373ffffffffffffffffffffffffffffffffffffffff16146105d857600080fd5b600a8054905060005414610637576040517f08c379a00000000000000000000000000000000000000000000000000000000081526004018080602001828103825260238152602001806111e76023913960400191505060405180910390fd5b6001600760006101000a81548160ff0219169083600281111561065657fe5b02179055506201518042016003819055507f4d795a02618e35d6787337a39ecfb308b3b1fd3b5825751e3619b0c22a4601c442600354604051808381526020018281526020019250505060405180910390a1600191505090565b600042905090565b60086020528060005260406000206000915090505481565b60096020528060005260406000206000915090508060000160009054906101000a900473ffffffffffffffffffffffffffffffffffffffff16908060000160149054906101000a900460ff16908060000160159054906101000a900460ff16905083565b60025481565b600560009054906101000a900473ffffffffffffffffffffffffffffffffffffffff1681565b6000600180600281111561077057fe5b600760009054906101000a900460ff16600281111561078b57fe5b1461079557600080fd5b600354421061080c576040517f08c379a00000000000000000000000000000000000000000000000000000000081526004018080602001828103825260148152602001807f656c656374696f6e20686173206578706972656400000000000000000000000081525060200191505060405180910390fd5b6001600281111561081957fe5b83600281111561082557fe5b1480610846575060028081111561083857fe5b83600281111561084457fe5b145b61089b576040517f08c379a000000000000000000000000000000000000000000000000000000000815260040180806020018281038252602b81526020018061120a602b913960400191505060405180910390fd5b6000600960003373ffffffffffffffffffffffffffffffffffffffff1673ffffffffffffffffffffffffffffffffffffffff16815260200190815260200160002090503373ffffffffffffffffffffffffffffffffffffffff168160000160009054906101000a900473ffffffffffffffffffffffffffffffffffffffff1673ffffffffffffffffffffffffffffffffffffffff1614801561094c57508060000160159054906101000a900460ff16155b61095557600080fd5b6001600281111561096257fe5b84600281111561096e57fe5b14156109d85760018160000160146101000a81548160ff0219169083600281111561099557fe5b0217905550600160086000600160028111156109ad57fe5b60028111156109b857fe5b815260200190815260200160002060008282540192505081905550610a37565b60028160000160146101000a81548160ff021916908360028111156109f957fe5b0217905550600160086000600280811115610a1057fe5b6002811115610a1b57fe5b8152602001908152602001600020600082825401925050819055505b60018160000160156101000a81548160ff021916908315150217905550600260008154809291906001019190505550600192505050919050565b600760009054906101000a900460ff1681565b6000600460009054906101000a900473ffffffffffffffffffffffffffffffffffffffff1673ffffffffffffffffffffffffffffffffffffffff163373ffffffffffffffffffffffffffffffffffffffff1614610ae057600080fd5b6001806002811115610aee57fe5b600760009054906101000a900460ff166002811115610b0957fe5b14610b1357600080fd5b600354421015610b6e576040517f08c379a00000000000000000000000000000000000000000000000000000000081526004018080602001828103825260238152602001806112356023913960400191505060405180910390fd5b606060006008600060016002811115610b8357fe5b6002811115610b8e57fe5b8152602001908152602001600020549050600060086000600280811115610bb157fe5b6002811115610bbc57fe5b815260200190815260200160002054905080821415610c19576040518060600160405280602d8152602001611258602d913992506000600760016101000a81548160ff02191690836002811115610c0f57fe5b0217905550610ce0565b80821115610c82576040518060400160405280601481526020017f63616e6469646174652031206861766520776f6e00000000000000000000000081525092506001600760016101000a81548160ff02191690836002811115610c7857fe5b0217905550610cdf565b6040518060400160405280601481526020017f63616e6469646174652032206861766520776f6e00000000000000000000000081525092506002600760016101000a81548160ff02191690836002811115610cd957fe5b02179055505b5b7f7a327ae0c94e6ec14105ce99cd4e5e5f7549cfb474a4a9b9015fbded917a4f41600760019054906101000a900460ff168460025460015460405180856002811115610d2857fe5b815260200180602001848152602001838152602001828103825285818151815260200191508051906020019080838360005b83811015610d75578082015181840152602081019050610d5a565b50505050905090810190601f168015610da25780820380516001836020036101000a031916815260200191505b509550505050505060405180910390a16002600760006101000a81548160ff02191690836002811115610dd157fe5b0217905550600194505050505090565b6060600a805480602002602001604051908101604052809291908181526020018280548015610e6557602002820191906000526020600020905b8160009054906101000a900473ffffffffffffffffffffffffffffffffffffffff1673ffffffffffffffffffffffffffffffffffffffff1681526020019060010190808311610e1b575b5050505050905090565b60068054600181600116156101000203166002900480601f016020809104026020016040519081016040528092919081815260200182805460018160011615610100020316600290048015610f055780601f10610eda57610100808354040283529160200191610f05565b820191906000526020600020905b815481529060010190602001808311610ee857829003601f168201915b505050505081565b600a8181548110610f1a57fe5b906000526020600020016000915054906101000a900473ffffffffffffffffffffffffffffffffffffffff1681565b600760019054906101000a900460ff1681565b60005481565b600460009054906101000a900473ffffffffffffffffffffffffffffffffffffffff1673ffffffffffffffffffffffffffffffffffffffff163373ffffffffffffffffffffffffffffffffffffffff1614610fbc57600080fd5b6000806002811115610fca57fe5b600760009054906101000a900460ff166002811115610fe557fe5b14610fef57600080fd5b610ff76111a2565b82816000019073ffffffffffffffffffffffffffffffffffffffff16908173ffffffffffffffffffffffffffffffffffffffff168152505080600960008573ffffffffffffffffffffffffffffffffffffffff1673ffffffffffffffffffffffffffffffffffffffff16815260200190815260200160002060008201518160000160006101000a81548173ffffffffffffffffffffffffffffffffffffffff021916908373ffffffffffffffffffffffffffffffffffffffff16021790555060208201518160000160146101000a81548160ff021916908360028111156110da57fe5b021790555060408201518160000160156101000a81548160ff021916908315150217905550905050600a839080600181540180825580915050600190039060005260206000200160009091909190916101000a81548173ffffffffffffffffffffffffffffffffffffffff021916908373ffffffffffffffffffffffffffffffffffffffff160217905550600160008154809291906001019190505550505050565b600460009054906101000a900473ffffffffffffffffffffffffffffffffffffffff1681565b6040518060600160405280600073ffffffffffffffffffffffffffffffffffffffff168152602001600060028111156111d757fe5b8152602001600015158152509056fe616c6c2074686520766f746572732073686f756c642062652072656769737465726564796f75722063686f6963652068617320746f206265206f6e65206f66207468652063616e64696461746573746f6f206561726c792c20656c656374696f6e2068617320746f20636f6e74696e7565426f74682063616e646964617465732068617665207468652073616d6520616d6f756e74206f6620766f746573a2646970667358221220e32a0a207c87e996e56be92cba9a59e6c594060f01bbcc969f736dc6449ddc7264736f6c63430007030033",
  "immutableReferences": {},
  "source": "// SPDX-License-Identifier: MIT\r\npragma solidity >=0.4.22 <0.9.0;\r\n\r\n// import \r\n\r\ncontract Voting {\r\n    \r\n    struct Voter {\r\n        address voter_address;\r\n        Options voter_choice;\r\n        bool has_voted;\r\n    }\r\n\r\n    uint public total_voters;\r\n    uint public voters_count = 0;\r\n    uint public total_votes = 0;\r\n    uint public time_voting_expires;\r\n    address public admin;\r\n\r\n    address public contract_address;\r\n    string public contract_name;\r\n\r\n    enum State { Created, Voting, Ended }\r\n    enum Options { abstain, candidate_1, candidate_2 }\r\n\r\n    State public state;\r\n    Options public winner;\r\n\r\n    mapping (Options => uint) public votes_per_candidate;\r\n    mapping(address => Voter) public voter_register;\r\n    address[] public voters;\r\n    \r\n    modifier onlyAdmin() {\r\n        require(msg.sender == admin);\r\n        _;\r\n    }\r\n\r\n    modifier inState(State _state) {\r\n        require(state == _state);\r\n        _;\r\n    }\r\n\r\n    constructor(uint _totalVoters) {\r\n        admin = msg.sender;\r\n        state = State.Created;\r\n        total_voters = _totalVoters;\r\n    }\r\n\r\n    event start_vote(uint time_started, uint time_expires);\r\n    event Result(Options voting_result, string message, uint total_votes, uint voters_count);\r\n\r\n    function addVoter(address _voterAddress) public onlyAdmin() inState(State.Created) {\r\n        // improve it by passing an array instead of one by one\r\n        Voter memory voter;\r\n        voter.voter_address = _voterAddress;\r\n        // check if there is need to define as false the other 2 fields\r\n        voter_register[_voterAddress] = voter;\r\n        voters.push(_voterAddress);\r\n        voters_count ++;\r\n    }\r\n\r\n    function startVote() external inState(State.Created) onlyAdmin() returns(bool){\r\n        // require statement to check that all the voters are added and allowed to vote\r\n        require(total_voters == voters.length, 'all the voters should be registered');\r\n        state = State.Voting;\r\n        // from the moment the election is going to last 1 day\r\n        time_voting_expires = block.timestamp + 86400;\r\n        emit start_vote(block.timestamp, time_voting_expires);\r\n        return true;\r\n    }\r\n    \r\n    function vote (Options _choice) external inState(State.Voting) returns(bool) {\r\n        require (block.timestamp < time_voting_expires, 'election has expired');\r\n        require (_choice == Options.candidate_1 || _choice == Options.candidate_2, 'your choice has to be one of the candidates');\r\n        Voter storage voter = voter_register[msg.sender];\r\n\r\n        require(voter.voter_address == msg.sender && !voter.has_voted);\r\n\r\n        // if statements to keep track of each candidate\r\n        if (_choice == Options.candidate_1) {\r\n            voter.voter_choice = Options.candidate_1;\r\n            votes_per_candidate[Options.candidate_1] += 1;  \r\n        } else {\r\n            voter.voter_choice = Options.candidate_2;\r\n            votes_per_candidate[Options.candidate_2] += 1;\r\n        }\r\n\r\n        voter.has_voted = true;\r\n        total_votes ++;\r\n        return true;\r\n    }\r\n\r\n    function endVoting() external onlyAdmin() inState(State.Voting) returns(bool){\r\n        require (block.timestamp >= time_voting_expires, 'too early, election has to continue');\r\n        string memory message;\r\n\r\n        uint votes_candidate_1 = votes_per_candidate[Options.candidate_1];\r\n        uint votes_candidate_2 = votes_per_candidate[Options.candidate_2];\r\n\r\n        if (votes_candidate_1 == votes_candidate_2) {\r\n            message = 'Both candidates have the same amount of votes';\r\n            winner = Options.abstain;\r\n        } else if (votes_candidate_1 > votes_candidate_2) {\r\n            message = 'candidate 1 have won'; \r\n            winner = Options.candidate_1;\r\n        } else {\r\n            message = 'candidate 2 have won'; \r\n            winner = Options.candidate_2;\r\n        }\r\n\r\n        emit Result(winner, message, total_votes, voters_count);\r\n\r\n        state = State.Ended;\r\n        return true;\r\n    }\r\n\r\n    function getVoters () external view returns (address[] memory) {\r\n        return voters;\r\n    }\r\n\r\n    function getTime() external view returns (uint) {\r\n        return block.timestamp;\r\n    }\r\n\r\n}",
  "sourcePath": "C:/Users/urbat/Documents/Programming/Voting_system/contracts/Voting.sol",
  "compiler": {
    "name": "solc",
    "version": "0.7.3+commit.9bfce1f6.Emscripten.clang"
  },
  "schemaVersion": "3.3.4",
  "updatedAt": "2021-06-17T15:15:32.299Z",
  "networkType": "ethereum",
  "devdoc": {
    "kind": "dev",
    "methods": {},
    "version": 1
  },
  "userdoc": {
    "kind": "user",
    "methods": {},
    "version": 1
  }
}