{
  "contractName": "Voting",
  "abi": [
    {
      "inputs": [
        {
          "internalType": "uint256",
          "name": "_totalVoters",
          "type": "uint256"
        }
      ],
      "stateMutability": "nonpayable",
      "type": "constructor"
    },
    {
      "anonymous": false,
      "inputs": [
        {
          "indexed": false,
          "internalType": "enum Voting.Options",
          "name": "voting_winner",
          "type": "uint8"
        },
        {
          "indexed": false,
          "internalType": "string",
          "name": "message",
          "type": "string"
        },
        {
          "indexed": false,
          "internalType": "uint256",
          "name": "total_votes",
          "type": "uint256"
        },
        {
          "indexed": false,
          "internalType": "uint256",
          "name": "voters_count",
          "type": "uint256"
        }
      ],
      "name": "Result",
      "type": "event"
    },
    {
      "anonymous": false,
      "inputs": [
        {
          "indexed": true,
          "internalType": "uint256",
          "name": "time_started",
          "type": "uint256"
        },
        {
          "indexed": true,
          "internalType": "uint256",
          "name": "time_expires",
          "type": "uint256"
        }
      ],
      "name": "Start_vote",
      "type": "event"
    },
    {
      "inputs": [],
      "name": "admin",
      "outputs": [
        {
          "internalType": "address",
          "name": "",
          "type": "address"
        }
      ],
      "stateMutability": "view",
      "type": "function"
    },
    {
      "inputs": [],
      "name": "contract_address",
      "outputs": [
        {
          "internalType": "address",
          "name": "",
          "type": "address"
        }
      ],
      "stateMutability": "view",
      "type": "function"
    },
    {
      "inputs": [],
      "name": "contract_name",
      "outputs": [
        {
          "internalType": "string",
          "name": "",
          "type": "string"
        }
      ],
      "stateMutability": "view",
      "type": "function"
    },
    {
      "inputs": [],
      "name": "state",
      "outputs": [
        {
          "internalType": "enum Voting.State",
          "name": "",
          "type": "uint8"
        }
      ],
      "stateMutability": "view",
      "type": "function"
    },
    {
      "inputs": [],
      "name": "time_voting_expires",
      "outputs": [
        {
          "internalType": "uint256",
          "name": "",
          "type": "uint256"
        }
      ],
      "stateMutability": "view",
      "type": "function"
    },
    {
      "inputs": [],
      "name": "total_voters",
      "outputs": [
        {
          "internalType": "uint256",
          "name": "",
          "type": "uint256"
        }
      ],
      "stateMutability": "view",
      "type": "function"
    },
    {
      "inputs": [],
      "name": "total_votes",
      "outputs": [
        {
          "internalType": "uint256",
          "name": "",
          "type": "uint256"
        }
      ],
      "stateMutability": "view",
      "type": "function"
    },
    {
      "inputs": [
        {
          "internalType": "address",
          "name": "",
          "type": "address"
        }
      ],
      "name": "voter_register",
      "outputs": [
        {
          "internalType": "address",
          "name": "voter_address",
          "type": "address"
        },
        {
          "internalType": "enum Voting.Options",
          "name": "voter_choice",
          "type": "uint8"
        },
        {
          "internalType": "bool",
          "name": "has_voted",
          "type": "bool"
        }
      ],
      "stateMutability": "view",
      "type": "function"
    },
    {
      "inputs": [
        {
          "internalType": "uint256",
          "name": "",
          "type": "uint256"
        }
      ],
      "name": "voters",
      "outputs": [
        {
          "internalType": "address",
          "name": "",
          "type": "address"
        }
      ],
      "stateMutability": "view",
      "type": "function"
    },
    {
      "inputs": [],
      "name": "voters_count",
      "outputs": [
        {
          "internalType": "uint256",
          "name": "",
          "type": "uint256"
        }
      ],
      "stateMutability": "view",
      "type": "function"
    },
    {
      "inputs": [
        {
          "internalType": "enum Voting.Options",
          "name": "",
          "type": "uint8"
        }
      ],
      "name": "votes_per_candidate",
      "outputs": [
        {
          "internalType": "uint256",
          "name": "",
          "type": "uint256"
        }
      ],
      "stateMutability": "view",
      "type": "function"
    },
    {
      "inputs": [],
      "name": "winner",
      "outputs": [
        {
          "internalType": "enum Voting.Options",
          "name": "",
          "type": "uint8"
        }
      ],
      "stateMutability": "view",
      "type": "function"
    },
    {
      "inputs": [
        {
          "internalType": "address[]",
          "name": "_voterAddresses",
          "type": "address[]"
        }
      ],
      "name": "addVoters",
      "outputs": [],
      "stateMutability": "nonpayable",
      "type": "function"
    },
    {
      "inputs": [],
      "name": "startVote",
      "outputs": [
        {
          "internalType": "bool",
          "name": "",
          "type": "bool"
        }
      ],
      "stateMutability": "nonpayable",
      "type": "function"
    },
    {
      "inputs": [
        {
          "internalType": "enum Voting.Options",
          "name": "_choice",
          "type": "uint8"
        }
      ],
      "name": "vote",
      "outputs": [
        {
          "internalType": "bool",
          "name": "",
          "type": "bool"
        }
      ],
      "stateMutability": "nonpayable",
      "type": "function"
    },
    {
      "inputs": [],
      "name": "endVoting",
      "outputs": [
        {
          "internalType": "bool",
          "name": "",
          "type": "bool"
        }
      ],
      "stateMutability": "nonpayable",
      "type": "function"
    },
    {
      "inputs": [],
      "name": "getVoters",
      "outputs": [
        {
          "internalType": "address[]",
          "name": "",
          "type": "address[]"
        }
      ],
      "stateMutability": "view",
      "type": "function"
    }
  ],
  "bytecode": "0x60806040526000600155600060025534801561001a57600080fd5b506040516114af3803806114af8339818101604052602081101561003d57600080fd5b810190808051906020019092919050505033600460006101000a81548173ffffffffffffffffffffffffffffffffffffffff021916908373ffffffffffffffffffffffffffffffffffffffff1602179055506000600760006101000a81548160ff021916908360028111156100ae57fe5b021790555080600081905550506113e5806100ca6000396000f3fe608060405234801561001057600080fd5b506004361061010b5760003560e01c8063b3f98adc116100a2578063d947969211610071578063d947969214610433578063da58c7d9146104b6578063dfbf53ae1461050e578063e8677f1914610537578063f851a440146105555761010b565b8063b3f98adc14610344578063c19d93fb1461038b578063c3403ddf146103b4578063cdd72253146103d45761010b565b806364754be3116100de57806364754be3146101b15780636ede603d1461023a5780638203373a14610258578063966b3514146103105761010b565b806303c5cbf11461011057806340dec7281461012e5780634c0a6af01461014c57806362637f951461016c575b600080fd5b610118610589565b6040518082815260200191505060405180910390f35b61013661058f565b6040518082815260200191505060405180910390f35b610154610595565b60405180821515815260200191505060405180910390f35b61019b6004803603602081101561018257600080fd5b81019080803560ff1690602001909291905050506106ea565b6040518082815260200191505060405180910390f35b6101f3600480360360208110156101c757600080fd5b81019080803573ffffffffffffffffffffffffffffffffffffffff169060200190929190505050610702565b604051808473ffffffffffffffffffffffffffffffffffffffff16815260200183600281111561021f57fe5b81526020018215158152602001935050505060405180910390f35b610242610766565b6040518082815260200191505060405180910390f35b61030e6004803603602081101561026e57600080fd5b810190808035906020019064010000000081111561028b57600080fd5b82018360208201111561029d57600080fd5b803590602001918460208302840111640100000000831117156102bf57600080fd5b919080806020026020016040519081016040528093929190818152602001838360200280828437600081840152601f19601f82011690508083019250505050505050919291929050505061076c565b005b6103186109d9565b604051808273ffffffffffffffffffffffffffffffffffffffff16815260200191505060405180910390f35b6103736004803603602081101561035a57600080fd5b81019080803560ff1690602001909291905050506109ff565b60405180821515815260200191505060405180910390f35b610393610db6565b604051808260028111156103a357fe5b815260200191505060405180910390f35b6103bc610dc9565b60405180821515815260200191505060405180910390f35b6103dc611126565b6040518080602001828103825283818151815260200191508051906020019060200280838360005b8381101561041f578082015181840152602081019050610404565b505050509050019250505060405180910390f35b61043b6111b4565b6040518080602001828103825283818151815260200191508051906020019080838360005b8381101561047b578082015181840152602081019050610460565b50505050905090810190601f1680156104a85780820380516001836020036101000a031916815260200191505b509250505060405180910390f35b6104e2600480360360208110156104cc57600080fd5b8101908080359060200190929190505050611252565b604051808273ffffffffffffffffffffffffffffffffffffffff16815260200191505060405180910390f35b61051661128e565b6040518082600281111561052657fe5b815260200191505060405180910390f35b61053f6112a1565b6040518082815260200191505060405180910390f35b61055d6112a7565b604051808273ffffffffffffffffffffffffffffffffffffffff16815260200191505060405180910390f35b60035481565b60015481565b6000808060028111156105a457fe5b600760009054906101000a900460ff1660028111156105bf57fe5b146105c957600080fd5b600460009054906101000a900473ffffffffffffffffffffffffffffffffffffffff1673ffffffffffffffffffffffffffffffffffffffff163373ffffffffffffffffffffffffffffffffffffffff161461062357600080fd5b600a8054905060005414610682576040517f08c379a00000000000000000000000000000000000000000000000000000000081526004018080602001828103825260238152602001806113126023913960400191505060405180910390fd5b6001600760006101000a81548160ff021916908360028111156106a157fe5b0217905550620151804201600381905550600354427fdccf9c886b25aa1110c3db0653498227eaed54592695af7b44f2eab4047d8f7f60405160405180910390a3600191505090565b60086020528060005260406000206000915090505481565b60096020528060005260406000206000915090508060000160009054906101000a900473ffffffffffffffffffffffffffffffffffffffff16908060000160149054906101000a900460ff16908060000160159054906101000a900460ff16905083565b60025481565b600460009054906101000a900473ffffffffffffffffffffffffffffffffffffffff1673ffffffffffffffffffffffffffffffffffffffff163373ffffffffffffffffffffffffffffffffffffffff16146107c657600080fd5b60008060028111156107d457fe5b600760009054906101000a900460ff1660028111156107ef57fe5b146107f957600080fd5b6108016112cd565b60005b83518110156109d35783818151811061081957fe5b6020026020010151826000019073ffffffffffffffffffffffffffffffffffffffff16908173ffffffffffffffffffffffffffffffffffffffff1681525050816009600086848151811061086957fe5b602002602001015173ffffffffffffffffffffffffffffffffffffffff1673ffffffffffffffffffffffffffffffffffffffff16815260200190815260200160002060008201518160000160006101000a81548173ffffffffffffffffffffffffffffffffffffffff021916908373ffffffffffffffffffffffffffffffffffffffff16021790555060208201518160000160146101000a81548160ff0219169083600281111561091657fe5b021790555060408201518160000160156101000a81548160ff021916908315150217905550905050600a84828151811061094c57fe5b60200260200101519080600181540180825580915050600190039060005260206000200160009091909190916101000a81548173ffffffffffffffffffffffffffffffffffffffff021916908373ffffffffffffffffffffffffffffffffffffffff1602179055506001600081548092919060010191905055508080600101915050610804565b50505050565b600560009054906101000a900473ffffffffffffffffffffffffffffffffffffffff1681565b60006001806002811115610a0f57fe5b600760009054906101000a900460ff166002811115610a2a57fe5b14610a3457600080fd5b6003544210610aab576040517f08c379a00000000000000000000000000000000000000000000000000000000081526004018080602001828103825260148152602001807f656c656374696f6e20686173206578706972656400000000000000000000000081525060200191505060405180910390fd5b60006002811115610ab857fe5b836002811115610ac457fe5b1480610ae6575060016002811115610ad857fe5b836002811115610ae457fe5b145b80610b065750600280811115610af857fe5b836002811115610b0457fe5b145b610b5b576040517f08c379a000000000000000000000000000000000000000000000000000000000815260040180806020018281038252602b815260200180611335602b913960400191505060405180910390fd5b6000600960003373ffffffffffffffffffffffffffffffffffffffff1673ffffffffffffffffffffffffffffffffffffffff16815260200190815260200160002090503373ffffffffffffffffffffffffffffffffffffffff168160000160009054906101000a900473ffffffffffffffffffffffffffffffffffffffff1673ffffffffffffffffffffffffffffffffffffffff16148015610c0c57508060000160159054906101000a900460ff16155b610c1557600080fd5b60016002811115610c2257fe5b846002811115610c2e57fe5b1415610c995760018160000160146101000a81548160ff02191690836002811115610c5557fe5b02179055506008600060016002811115610c6b57fe5b6002811115610c7657fe5b815260200190815260200160002060008154809291906001019190505550610d7c565b600280811115610ca557fe5b846002811115610cb157fe5b1415610d1b5760028160000160146101000a81548160ff02191690836002811115610cd857fe5b021790555060086000600280811115610ced57fe5b6002811115610cf857fe5b815260200190815260200160002060008154809291906001019190505550610d7b565b60008160000160146101000a81548160ff02191690836002811115610d3c57fe5b021790555060086000806002811115610d5157fe5b6002811115610d5c57fe5b8152602001908152602001600020600081548092919060010191905055505b5b60018160000160156101000a81548160ff021916908315150217905550600260008154809291906001019190505550600192505050919050565b600760009054906101000a900460ff1681565b6000600460009054906101000a900473ffffffffffffffffffffffffffffffffffffffff1673ffffffffffffffffffffffffffffffffffffffff163373ffffffffffffffffffffffffffffffffffffffff1614610e2557600080fd5b6001806002811115610e3357fe5b600760009054906101000a900460ff166002811115610e4e57fe5b14610e5857600080fd5b600354421015610eb3576040517f08c379a00000000000000000000000000000000000000000000000000000000081526004018080602001828103825260238152602001806113606023913960400191505060405180910390fd5b606060006008600060016002811115610ec857fe5b6002811115610ed357fe5b8152602001908152602001600020549050600060086000600280811115610ef657fe5b6002811115610f0157fe5b815260200190815260200160002054905080821415610f5e576040518060600160405280602d8152602001611383602d913992506000600760016101000a81548160ff02191690836002811115610f5457fe5b0217905550611025565b80821115610fc7576040518060400160405280601481526020017f63616e6469646174652031206861766520776f6e00000000000000000000000081525092506001600760016101000a81548160ff02191690836002811115610fbd57fe5b0217905550611024565b6040518060400160405280601481526020017f63616e6469646174652032206861766520776f6e00000000000000000000000081525092506002600760016101000a81548160ff0219169083600281111561101e57fe5b02179055505b5b7f7a327ae0c94e6ec14105ce99cd4e5e5f7549cfb474a4a9b9015fbded917a4f41600760019054906101000a900460ff16846002546001546040518085600281111561106d57fe5b815260200180602001848152602001838152602001828103825285818151815260200191508051906020019080838360005b838110156110ba57808201518184015260208101905061109f565b50505050905090810190601f1680156110e75780820380516001836020036101000a031916815260200191505b509550505050505060405180910390a16002600760006101000a81548160ff0219169083600281111561111657fe5b0217905550600194505050505090565b6060600a8054806020026020016040519081016040528092919081815260200182805480156111aa57602002820191906000526020600020905b8160009054906101000a900473ffffffffffffffffffffffffffffffffffffffff1673ffffffffffffffffffffffffffffffffffffffff1681526020019060010190808311611160575b5050505050905090565b60068054600181600116156101000203166002900480601f01602080910402602001604051908101604052809291908181526020018280546001816001161561010002031660029004801561124a5780601f1061121f5761010080835404028352916020019161124a565b820191906000526020600020905b81548152906001019060200180831161122d57829003601f168201915b505050505081565b600a818154811061125f57fe5b906000526020600020016000915054906101000a900473ffffffffffffffffffffffffffffffffffffffff1681565b600760019054906101000a900460ff1681565b60005481565b600460009054906101000a900473ffffffffffffffffffffffffffffffffffffffff1681565b6040518060600160405280600073ffffffffffffffffffffffffffffffffffffffff1681526020016000600281111561130257fe5b8152602001600015158152509056fe616c6c2074686520766f746572732073686f756c642062652072656769737465726564796f75722063686f6963652068617320746f206265206f6e65206f66207468652063616e64696461746573746f6f206561726c792c20656c656374696f6e2068617320746f20636f6e74696e7565426f74682063616e646964617465732068617665207468652073616d6520616d6f756e74206f6620766f746573a2646970667358221220c4780118face1b292b4cc1ee670c87c231b34e7a15b3bf7e5b9b6be097b56f9d64736f6c63430007030033",
  "immutableReferences": {},
  "source": "// SPDX-License-Identifier: MIT\r\npragma solidity >=0.4.22 <0.9.0;\r\n\r\n// import \r\n\r\ncontract Voting {\r\n    \r\n    struct Voter {\r\n        address voter_address;\r\n        Options voter_choice;\r\n        bool has_voted;\r\n    }\r\n\r\n    uint public total_voters;\r\n    uint public voters_count = 0;\r\n    uint public total_votes = 0;\r\n    uint public time_voting_expires;\r\n    address public admin;\r\n\r\n    address public contract_address;\r\n    string public contract_name;\r\n\r\n    enum State { Created, Voting, Ended }\r\n    enum Options { abstain, candidate_1, candidate_2 }\r\n\r\n    State public state;\r\n    Options public winner;\r\n\r\n    mapping (Options => uint) public votes_per_candidate;\r\n    mapping(address => Voter) public voter_register;\r\n    address[] public voters;\r\n    \r\n    modifier onlyAdmin() {\r\n        require(msg.sender == admin);\r\n        _;\r\n    }\r\n\r\n    modifier inState(State _state) {\r\n        require(state == _state);\r\n        _;\r\n    }\r\n\r\n    constructor(uint _totalVoters) {\r\n        admin = msg.sender;\r\n        state = State.Created;\r\n        total_voters = _totalVoters;\r\n    }\r\n\r\n    event Start_vote(uint indexed time_started, uint indexed time_expires);\r\n    event Result(Options voting_winner, string message, uint total_votes, uint voters_count);\r\n\r\n    function addVoters(address[] memory _voterAddresses) public onlyAdmin() inState(State.Created) {\r\n        \r\n        Voter memory voter;\r\n        for (uint i = 0; i < _voterAddresses.length ; i ++) {\r\n            voter.voter_address = _voterAddresses[i];\r\n            voter_register[_voterAddresses[i]] = voter;\r\n            voters.push(_voterAddresses[i]);\r\n            voters_count ++;\r\n        }\r\n        // improve it by passing an array instead of one by one\r\n    }\r\n\r\n    /*\r\n    function addVoter(address _voterAddress) public onlyAdmin() inState(State.Created) {\r\n        // improve it by passing an array instead of one by one\r\n        Voter memory voter;\r\n        voter.voter_address = _voterAddress;\r\n        // check if there is need to define as false the other 2 fields\r\n        voter_register[_voterAddress] = voter;\r\n        voters.push(_voterAddress);\r\n        voters_count ++;\r\n    }\r\n    */\r\n    function startVote() external inState(State.Created) onlyAdmin() returns(bool){\r\n        // require statement to check that all the voters are added and allowed to vote\r\n        require(total_voters == voters.length, 'all the voters should be registered');\r\n        state = State.Voting;\r\n        // from the moment the election is going to last 1 day\r\n        time_voting_expires = block.timestamp + 86400;\r\n        emit Start_vote(block.timestamp, time_voting_expires);\r\n        return true;\r\n    }\r\n    \r\n    function vote (Options _choice) external inState(State.Voting) returns(bool) {\r\n        require (block.timestamp < time_voting_expires, 'election has expired');\r\n        require (_choice == Options.abstain || _choice == Options.candidate_1 || _choice == Options.candidate_2, 'your choice has to be one of the candidates');\r\n        Voter storage voter = voter_register[msg.sender];\r\n\r\n        require(voter.voter_address == msg.sender && !voter.has_voted);\r\n\r\n        // if statements to keep track of each candidate\r\n        if (_choice == Options.candidate_1) {\r\n            voter.voter_choice = Options.candidate_1;\r\n            votes_per_candidate[Options.candidate_1] ++;  \r\n        } else if (_choice == Options.candidate_2) {\r\n            voter.voter_choice = Options.candidate_2;\r\n            votes_per_candidate[Options.candidate_2] ++;\r\n        } else {\r\n            voter.voter_choice = Options.abstain;\r\n            votes_per_candidate[Options.abstain] ++;\r\n        }\r\n\r\n        voter.has_voted = true;\r\n        total_votes ++;\r\n        return true;\r\n    }\r\n\r\n    function endVoting() external onlyAdmin() inState(State.Voting) returns(bool){\r\n        require (block.timestamp >= time_voting_expires, 'too early, election has to continue');\r\n        string memory message;\r\n\r\n        uint votes_candidate_1 = votes_per_candidate[Options.candidate_1];\r\n        uint votes_candidate_2 = votes_per_candidate[Options.candidate_2];\r\n\r\n        if (votes_candidate_1 == votes_candidate_2) {\r\n            message = 'Both candidates have the same amount of votes';\r\n            winner = Options.abstain;\r\n        } else if (votes_candidate_1 > votes_candidate_2) {\r\n            message = 'candidate 1 have won'; \r\n            winner = Options.candidate_1;\r\n        } else {\r\n            message = 'candidate 2 have won'; \r\n            winner = Options.candidate_2;\r\n        }\r\n\r\n        emit Result(winner, message, total_votes, voters_count);\r\n\r\n        state = State.Ended;\r\n        return true;\r\n    }\r\n\r\n    function getVoters () external view returns (address[] memory) {\r\n        return voters;\r\n    }\r\n}",
  "sourcePath": "C:/Users/urbat/Documents/Programming/Voting_system/contracts/Voting.sol",
  "compiler": {
    "name": "solc",
    "version": "0.7.3+commit.9bfce1f6.Emscripten.clang"
  },
  "schemaVersion": "3.3.4",
  "updatedAt": "2021-06-18T15:59:30.995Z",
  "devdoc": {
    "kind": "dev",
    "methods": {},
    "version": 1
  },
  "userdoc": {
    "kind": "user",
    "methods": {},
    "version": 1
  }
}