{
  "contractName": "Voting",
  "abi": [
    {
      "inputs": [],
      "stateMutability": "nonpayable",
      "type": "constructor"
    },
    {
      "anonymous": false,
      "inputs": [
        {
          "indexed": false,
          "internalType": "string",
          "name": "voting_result",
          "type": "string"
        },
        {
          "indexed": false,
          "internalType": "string",
          "name": "message",
          "type": "string"
        },
        {
          "indexed": false,
          "internalType": "uint256",
          "name": "total_votes",
          "type": "uint256"
        },
        {
          "indexed": false,
          "internalType": "uint256",
          "name": "total_voters",
          "type": "uint256"
        }
      ],
      "name": "Result",
      "type": "event"
    },
    {
      "inputs": [],
      "name": "admin",
      "outputs": [
        {
          "internalType": "address",
          "name": "",
          "type": "address"
        }
      ],
      "stateMutability": "view",
      "type": "function"
    },
    {
      "inputs": [],
      "name": "contract_address",
      "outputs": [
        {
          "internalType": "address",
          "name": "",
          "type": "address"
        }
      ],
      "stateMutability": "view",
      "type": "function"
    },
    {
      "inputs": [],
      "name": "contract_name",
      "outputs": [
        {
          "internalType": "string",
          "name": "",
          "type": "string"
        }
      ],
      "stateMutability": "view",
      "type": "function"
    },
    {
      "inputs": [],
      "name": "state",
      "outputs": [
        {
          "internalType": "enum Voting.State",
          "name": "",
          "type": "uint8"
        }
      ],
      "stateMutability": "view",
      "type": "function"
    },
    {
      "inputs": [],
      "name": "time_voting_expires",
      "outputs": [
        {
          "internalType": "uint256",
          "name": "",
          "type": "uint256"
        }
      ],
      "stateMutability": "view",
      "type": "function"
    },
    {
      "inputs": [],
      "name": "total_voters",
      "outputs": [
        {
          "internalType": "uint256",
          "name": "",
          "type": "uint256"
        }
      ],
      "stateMutability": "view",
      "type": "function"
    },
    {
      "inputs": [],
      "name": "total_votes",
      "outputs": [
        {
          "internalType": "uint256",
          "name": "",
          "type": "uint256"
        }
      ],
      "stateMutability": "view",
      "type": "function"
    },
    {
      "inputs": [
        {
          "internalType": "address",
          "name": "",
          "type": "address"
        }
      ],
      "name": "voter_register",
      "outputs": [
        {
          "internalType": "address",
          "name": "voter_address",
          "type": "address"
        },
        {
          "internalType": "enum Voting.Candidate",
          "name": "voter_choice",
          "type": "uint8"
        },
        {
          "internalType": "bool",
          "name": "has_voted",
          "type": "bool"
        }
      ],
      "stateMutability": "view",
      "type": "function"
    },
    {
      "inputs": [
        {
          "internalType": "address",
          "name": "_voterAddress",
          "type": "address"
        }
      ],
      "name": "addVoter",
      "outputs": [],
      "stateMutability": "nonpayable",
      "type": "function"
    },
    {
      "inputs": [],
      "name": "startVote",
      "outputs": [
        {
          "internalType": "bool",
          "name": "",
          "type": "bool"
        }
      ],
      "stateMutability": "nonpayable",
      "type": "function"
    },
    {
      "inputs": [
        {
          "internalType": "enum Voting.Candidate",
          "name": "_choice",
          "type": "uint8"
        }
      ],
      "name": "voting",
      "outputs": [
        {
          "internalType": "bool",
          "name": "",
          "type": "bool"
        }
      ],
      "stateMutability": "nonpayable",
      "type": "function"
    },
    {
      "inputs": [],
      "name": "endVoting",
      "outputs": [
        {
          "internalType": "bool",
          "name": "",
          "type": "bool"
        }
      ],
      "stateMutability": "nonpayable",
      "type": "function"
    }
  ],
  "bytecode": "0x608060405260008055600060015534801561001957600080fd5b5033600360006101000a81548173ffffffffffffffffffffffffffffffffffffffff021916908373ffffffffffffffffffffffffffffffffffffffff1602179055506000600660006101000a81548160ff0219169083600281111561007a57fe5b0217905550610f648061008e6000396000f3fe608060405234801561001057600080fd5b50600436106100b45760003560e01c8063c19d93fb11610071578063c19d93fb14610219578063c3403ddf14610242578063d947969214610262578063e8677f19146102e5578063f4ab9adf14610303578063f851a44014610347576100b4565b806303c5cbf1146100b95780630f3753a0146100d75780634c0a6af01461011e57806364754be31461013e5780636ede603d146101c7578063966b3514146101e5575b600080fd5b6100c161037b565b6040518082815260200191505060405180910390f35b610106600480360360208110156100ed57600080fd5b81019080803560ff169060200190929190505050610381565b60405180821515815260200191505060405180910390f35b610126610691565b60405180821515815260200191505060405180910390f35b6101806004803603602081101561015457600080fd5b81019080803573ffffffffffffffffffffffffffffffffffffffff169060200190929190505050610757565b604051808473ffffffffffffffffffffffffffffffffffffffff1681526020018360018111156101ac57fe5b81526020018215158152602001935050505060405180910390f35b6101cf6107bb565b6040518082815260200191505060405180910390f35b6101ed6107c1565b604051808273ffffffffffffffffffffffffffffffffffffffff16815260200191505060405180910390f35b6102216107e7565b6040518082600281111561023157fe5b815260200191505060405180910390f35b61024a6107fa565b60405180821515815260200191505060405180910390f35b61026a610bdf565b6040518080602001828103825283818151815260200191508051906020019080838360005b838110156102aa57808201518184015260208101905061028f565b50505050905090810190601f1680156102d75780820380516001836020036101000a031916815260200191505b509250505060405180910390f35b6102ed610c7d565b6040518082815260200191505060405180910390f35b6103456004803603602081101561031957600080fd5b81019080803573ffffffffffffffffffffffffffffffffffffffff169060200190929190505050610c83565b005b61034f610e39565b604051808273ffffffffffffffffffffffffffffffffffffffff16815260200191505060405180910390f35b60025481565b6000600180600281111561039157fe5b600660009054906101000a900460ff1660028111156103ac57fe5b146103b657600080fd5b600254421061042d576040517f08c379a00000000000000000000000000000000000000000000000000000000081526004018080602001828103825260148152602001807f656c656374696f6e20686173206578706972656400000000000000000000000081525060200191505060405180910390fd5b6000600181111561043a57fe5b83600181111561044657fe5b1480610467575060018081111561045957fe5b83600181111561046557fe5b145b6104bc576040517f08c379a000000000000000000000000000000000000000000000000000000000815260040180806020018281038252602b815260200180610ee1602b913960400191505060405180910390fd5b6000600860003373ffffffffffffffffffffffffffffffffffffffff1673ffffffffffffffffffffffffffffffffffffffff16815260200190815260200160002090503373ffffffffffffffffffffffffffffffffffffffff168160000160009054906101000a900473ffffffffffffffffffffffffffffffffffffffff1673ffffffffffffffffffffffffffffffffffffffff1614801561056d57508060000160159054906101000a900460ff16155b61057657600080fd5b6000600181111561058357fe5b84600181111561058f57fe5b14156105f85760008160000160146101000a81548160ff021916908360018111156105b657fe5b02179055506001600760008060018111156105cd57fe5b60018111156105d857fe5b815260200190815260200160002060008282540192505081905550610657565b60018160000160146101000a81548160ff0219169083600181111561061957fe5b021790555060016007600060018081111561063057fe5b600181111561063b57fe5b8152602001908152602001600020600082825401925050819055505b60018160000160156101000a81548160ff021916908315150217905550600160008154809291906001019190505550600192505050919050565b6000808060028111156106a057fe5b600660009054906101000a900460ff1660028111156106bb57fe5b146106c557600080fd5b600360009054906101000a900473ffffffffffffffffffffffffffffffffffffffff1673ffffffffffffffffffffffffffffffffffffffff163373ffffffffffffffffffffffffffffffffffffffff161461071f57600080fd5b6001600660006101000a81548160ff0219169083600281111561073e57fe5b0217905550620151804201600281905550600191505090565b60086020528060005260406000206000915090508060000160009054906101000a900473ffffffffffffffffffffffffffffffffffffffff16908060000160149054906101000a900460ff16908060000160159054906101000a900460ff16905083565b60015481565b600460009054906101000a900473ffffffffffffffffffffffffffffffffffffffff1681565b600660009054906101000a900460ff1681565b6000600360009054906101000a900473ffffffffffffffffffffffffffffffffffffffff1673ffffffffffffffffffffffffffffffffffffffff163373ffffffffffffffffffffffffffffffffffffffff161461085657600080fd5b600180600281111561086457fe5b600660009054906101000a900460ff16600281111561087f57fe5b1461088957600080fd5b6002544210156108e4576040517f08c379a0000000000000000000000000000000000000000000000000000000008152600401808060200182810382526023815260200180610f0c6023913960400191505060405180910390fd5b6060806000600760008060018111156108f957fe5b600181111561090457fe5b815260200190815260200160002054905060006007600060018081111561092757fe5b600181111561093257fe5b8152602001908152602001600020549050808214156109a3576040518060600160405280603d8152602001610ea4603d913993506040518060400160405280600981526020017f4e6f2077696e6e657200000000000000000000000000000000000000000000008152509250610a92565b80821115610a20576040518060400160405280601481526020017f63616e6469646174652031206861766520776f6e00000000000000000000000081525093506040518060400160405280600b81526020017f43616e64696461746520310000000000000000000000000000000000000000008152509250610a91565b6040518060400160405280601481526020017f63616e6469646174652032206861766520776f6e00000000000000000000000081525093506040518060400160405280600b81526020017f43616e646964617465203200000000000000000000000000000000000000000081525092505b5b7f05cf8337bf9d21f7e68a912762542c66d5d09072b3a0c7a32f4bebc4994283e08385600154600054604051808060200180602001858152602001848152602001838103835287818151815260200191508051906020019080838360005b83811015610b0b578082015181840152602081019050610af0565b50505050905090810190601f168015610b385780820380516001836020036101000a031916815260200191505b50838103825286818151815260200191508051906020019080838360005b83811015610b71578082015181840152602081019050610b56565b50505050905090810190601f168015610b9e5780820380516001836020036101000a031916815260200191505b50965050505050505060405180910390a16002600660006101000a81548160ff02191690836002811115610bce57fe5b021790555060019550505050505090565b60058054600181600116156101000203166002900480601f016020809104026020016040519081016040528092919081815260200182805460018160011615610100020316600290048015610c755780601f10610c4a57610100808354040283529160200191610c75565b820191906000526020600020905b815481529060010190602001808311610c5857829003601f168201915b505050505081565b60005481565b600360009054906101000a900473ffffffffffffffffffffffffffffffffffffffff1673ffffffffffffffffffffffffffffffffffffffff163373ffffffffffffffffffffffffffffffffffffffff1614610cdd57600080fd5b6000806002811115610ceb57fe5b600660009054906101000a900460ff166002811115610d0657fe5b14610d1057600080fd5b610d18610e5f565b82816000019073ffffffffffffffffffffffffffffffffffffffff16908173ffffffffffffffffffffffffffffffffffffffff168152505080600860008573ffffffffffffffffffffffffffffffffffffffff1673ffffffffffffffffffffffffffffffffffffffff16815260200190815260200160002060008201518160000160006101000a81548173ffffffffffffffffffffffffffffffffffffffff021916908373ffffffffffffffffffffffffffffffffffffffff16021790555060208201518160000160146101000a81548160ff02191690836001811115610dfb57fe5b021790555060408201518160000160156101000a81548160ff0219169083151502179055509050506000808154809291906001019190505550505050565b600360009054906101000a900473ffffffffffffffffffffffffffffffffffffffff1681565b6040518060600160405280600073ffffffffffffffffffffffffffffffffffffffff16815260200160006001811115610e9457fe5b8152602001600015158152509056fe6e6f206f6e65206861732077696e2c20626f74682063616e646964617465732068617665207468652073616d6520616d6f756e74206f6620766f746573796f75722063686f6963652068617320746f206265206f6e65206f66207468652063616e64696461746573746f6f206561726c792c20656c656374696f6e2068617320746f20636f6e74696e7565a264697066735822122017a27e2248fec6f2927ce9113307a424f20e2b9faba5f7bef6866994cbf8a78864736f6c63430007030033",
  "immutableReferences": {},
  "source": "// SPDX-License-Identifier: MIT\r\npragma solidity >=0.4.22 <0.9.0;\r\n\r\n// import \r\n\r\ncontract Voting {\r\n    \r\n    struct Voter {\r\n        address voter_address;\r\n        Candidate voter_choice;\r\n        bool has_voted;\r\n    }\r\n\r\n    uint public total_voters = 0;\r\n    uint public total_votes = 0;\r\n    uint public time_voting_expires;\r\n    address public admin;\r\n\r\n    address public contract_address;\r\n    string public contract_name;\r\n\r\n    enum State { Created, Voting, Ended }\r\n    enum Candidate { option_1, option_2 }\r\n\r\n    State public state;\r\n\r\n    mapping (Candidate => uint) private votes_per_candidate;\r\n    mapping(address => Voter) public voter_register;\r\n    \r\n    modifier onlyAdmin() {\r\n        require(msg.sender == admin);\r\n        _;\r\n    }\r\n\r\n    modifier inState(State _state) {\r\n        require(state == _state);\r\n        _;\r\n    }\r\n\r\n    constructor() {\r\n        admin = msg.sender;\r\n        state = State.Created;\r\n        \r\n    }\r\n\r\n    event Result(string voting_result, string message, uint total_votes, uint total_voters);\r\n\r\n    function addVoter(address _voterAddress) public onlyAdmin() inState(State.Created) {\r\n        // improve it by passing an array instead of one by one\r\n        Voter memory voter;\r\n        voter.voter_address = _voterAddress;\r\n        // check if there is need to define as false the other 2 fields\r\n        voter_register[_voterAddress] = voter;\r\n        total_voters ++;\r\n    }\r\n\r\n    function startVote() external inState(State.Created) onlyAdmin() returns(bool){\r\n        state = State.Voting;\r\n        // from the moment the election is going to last 1 day\r\n        time_voting_expires = block.timestamp + 86400;\r\n        return true;\r\n    }\r\n    \r\n    function voting (Candidate _choice) external inState(State.Voting) returns(bool) {\r\n        require (block.timestamp < time_voting_expires, 'election has expired');\r\n        require (_choice == Candidate.option_1 || _choice == Candidate.option_2, 'your choice has to be one of the candidates');\r\n        Voter storage voter = voter_register[msg.sender];\r\n\r\n        require(voter.voter_address == msg.sender && !voter.has_voted);\r\n\r\n        // if statements to keep track of each candidate\r\n        if (_choice == Candidate.option_1) {\r\n            voter.voter_choice = Candidate.option_1;\r\n            votes_per_candidate[Candidate.option_1] += 1;  \r\n        } else {\r\n            voter.voter_choice = Candidate.option_2;\r\n            votes_per_candidate[Candidate.option_2] += 1;\r\n        }\r\n\r\n        voter.has_voted = true;\r\n        total_votes ++;\r\n        return true;\r\n    }\r\n\r\n    function endVoting() external onlyAdmin() inState(State.Voting) returns(bool){\r\n        require (block.timestamp >= time_voting_expires, 'too early, election has to continue');\r\n        string memory message;\r\n        string memory winner;\r\n\r\n        uint votes_candidate_1 = votes_per_candidate[Candidate.option_1];\r\n        uint votes_candidate_2 = votes_per_candidate[Candidate.option_2];\r\n\r\n        if (votes_candidate_1 == votes_candidate_2) {\r\n            message = 'no one has win, both candidates have the same amount of votes';\r\n            winner = 'No winner';\r\n        } else if (votes_candidate_1 > votes_candidate_2) {\r\n            message = 'candidate 1 have won'; \r\n            winner = 'Candidate 1';\r\n        } else {\r\n            message = 'candidate 2 have won'; \r\n            winner = 'Candidate 2';\r\n        }\r\n\r\n        emit Result(winner, message, total_votes, total_voters);\r\n\r\n        state = State.Ended;\r\n        return true;\r\n    }\r\n\r\n}",
  "sourcePath": "C:/Users/urbat/Documents/Programming/Voting_system/contracts/Voting.sol",
  "compiler": {
    "name": "solc",
    "version": "0.7.3+commit.9bfce1f6.Emscripten.clang"
  },
  "schemaVersion": "3.3.4",
  "updatedAt": "2021-06-15T18:30:17.346Z",
  "devdoc": {
    "kind": "dev",
    "methods": {},
    "version": 1
  },
  "userdoc": {
    "kind": "user",
    "methods": {},
    "version": 1
  }
}